{
  "abi": [
    {
      "inputs": [],
      "name": "getCount",
      "outputs": [
        {
          "internalType": "uint256",
          "name": "",
          "type": "uint256"
        }
      ],
      "stateMutability": "view",
      "type": "function"
    },
    {
      "inputs": [
        {
          "internalType": "uint256",
          "name": "userId",
          "type": "uint256"
        }
      ],
      "name": "getMessage",
      "outputs": [
        {
          "components": [
            {
              "internalType": "string",
              "name": "img",
              "type": "string"
            },
            {
              "internalType": "string",
              "name": "message",
              "type": "string"
            },
            {
              "internalType": "address",
              "name": "sender",
              "type": "address"
            }
          ],
          "internalType": "struct GuessBook.Message",
          "name": "",
          "type": "tuple"
        }
      ],
      "stateMutability": "view",
      "type": "function"
    },
    {
      "inputs": [
        {
          "internalType": "string",
          "name": "img",
          "type": "string"
        },
        {
          "internalType": "string",
          "name": "message",
          "type": "string"
        }
      ],
      "name": "postMessage",
      "outputs": [
        {
          "internalType": "uint256",
          "name": "",
          "type": "uint256"
        }
      ],
      "stateMutability": "nonpayable",
      "type": "function"
    }
  ],
  "bytecode": {
    "object": "0x608060405234801561001057600080fd5b506105df806100206000396000f3fe608060405234801561001057600080fd5b50600436106100415760003560e01c806349819eba1461004657806386f79edb1461006c578063a87d942c1461008c575b600080fd5b610059610054366004610342565b610094565b6040519081526020015b60405180910390f35b61007f61007a3660046103a6565b61012c565b6040516100639190610405565b600054610059565b6000806100a060005490565b90506100b0600080546001019055565b60408051606081018252858152602080820186905233828401526000848152600190915291909120815181906100e690826104e9565b50602082015160018201906100fb90826104e9565b5060409190910151600290910180546001600160a01b0319166001600160a01b039092169190911790559392505050565b604080516060808201835280825260208201526000918101919091526000828152600160205260409081902081516060810190925280548290829061017090610460565b80601f016020809104026020016040519081016040528092919081815260200182805461019c90610460565b80156101e95780601f106101be576101008083540402835291602001916101e9565b820191906000526020600020905b8154815290600101906020018083116101cc57829003601f168201915b5050505050815260200160018201805461020290610460565b80601f016020809104026020016040519081016040528092919081815260200182805461022e90610460565b801561027b5780601f106102505761010080835404028352916020019161027b565b820191906000526020600020905b81548152906001019060200180831161025e57829003601f168201915b5050509183525050600291909101546001600160a01b031660209091015292915050565b634e487b7160e01b600052604160045260246000fd5b600082601f8301126102c657600080fd5b813567ffffffffffffffff808211156102e1576102e161029f565b604051601f8301601f19908116603f011681019082821181831017156103095761030961029f565b8160405283815286602085880101111561032257600080fd5b836020870160208301376000602085830101528094505050505092915050565b6000806040838503121561035557600080fd5b823567ffffffffffffffff8082111561036d57600080fd5b610379868387016102b5565b9350602085013591508082111561038f57600080fd5b5061039c858286016102b5565b9150509250929050565b6000602082840312156103b857600080fd5b5035919050565b6000815180845260005b818110156103e5576020818501810151868301820152016103c9565b506000602082860101526020601f19601f83011685010191505092915050565b60208152600082516060602084015261042160808401826103bf565b90506020840151601f1984830301604085015261043e82826103bf565b604095909501516001600160a01b031660609490940193909352509192915050565b600181811c9082168061047457607f821691505b60208210810361049457634e487b7160e01b600052602260045260246000fd5b50919050565b601f8211156104e457600081815260208120601f850160051c810160208610156104c15750805b601f850160051c820191505b818110156104e0578281556001016104cd565b5050505b505050565b815167ffffffffffffffff8111156105035761050361029f565b610517816105118454610460565b8461049a565b602080601f83116001811461054c57600084156105345750858301515b600019600386901b1c1916600185901b1785556104e0565b600085815260208120601f198616915b8281101561057b5788860151825594840194600190910190840161055c565b50858210156105995787850151600019600388901b60f8161c191681555b5050505050600190811b0190555056fea2646970667358221220a5cfcb70d18cc73917c28882ac145ffc4a5c9e350ceff47e814f61b8fb9627af64736f6c63430008140033",
    "linkReferences": {}
  },
  "methodIdentifiers": {
    "getCount()": "a87d942c",
    "getMessage(uint256)": "86f79edb",
    "postMessage(string,string)": "49819eba"
  },
  "id": 28
}